:1000000016EF00F0EA6A070EE96EEF500EE00F0EF1
:10001000016E006A002EFED7012EFBD78F0E006EF8
:10002000002EFED70000EF2EF2D71200F86AD09E05
:10003000C150C00B0F09C16E070EB46E056A0550A2
:1000400002080CE394908B805A0E076EDBDF9490CD
:100050008B90280E076ED6DF052AF1D7066A065068
:1000600002080CE394928B825A0E076ECBDF9492B7
:100070008B92280E076EC6DF062AF1D7DFD7030062
:020000040030CA
:0E00000024CE3E1E0007A1000FC00FE00F40EF
:00000001FF
;PIC18F4550
;CRC=063E  CREATED="16-Ara-20 22:47"
